:020000040800F2
:10000000900B002039020008B7320008EF260008E4
:10001000253100085D080008B93B00080000000019
:10002000000000000000000000000000B9340008DB
:100030005F080008000000001D340008D9350008E2
:10004000530200085302000853020008530200083C
:10005000530200085302000853020008530200082C
:10006000530200085302000853020008530200081C
:10007000530200085302000853020008530200080C
:1000800053020008530200085302000853020008FC
:1000900053020008530200085302000853020008EC
:1000A00053020008530200085302000853020008DC
:1000B00053020008530200085302000853020008CC
:1000C00053020008530200085302000853020008BC
:1000D0005302000853020008AD3B00085302000819
:1000E000530200085302000853020008530200089C
:1000F000530200085302000853020008530200088C
:10010000530200085302000853020008530200087B
:10011000530200085302000853020008530200086B
:10012000530200085302000853020008530200085B
:10013000530200085302000853020008530200084B
:10014000530200085302000853020008530200083B
:10015000530200085302000853020008530200082B
:10016000530200085302000853020008530200081B
:100170005302000853020008530200080000000068
:10018000530200085302000800F002F800F044F89F
:100190000AA090E8000C82448344AAF10107DA45E2
:1001A00001D100F039F8AFF2090EBAE80F0013F0F0
:1001B000010F18BFFB1A43F0010318476046000007
:1001C00080460000103A24BF78C878C1FAD8520798
:1001D00024BF30C830C144BF04680C6070470000C1
:1001E0000023002400250026103A28BF78C1FBD840
:1001F000520728BF30C148BF0B607047642900F028
:10020000CD80752900F0CA80002070471FB504F02A
:10021000CFF81FBD10B510BD00F01FFA1146FFF753
:10022000F5FF04F079F800F03DFA03B4FFF7F2FFB0
:1002300003BC00F045FA0000094880470948004720
:10024000FEE7FEE7FEE7FEE7FEE7FEE7FEE7FEE786
:10025000FEE7FEE704480549054A064B70470000E3
:10026000593600088901000890050020900B0020F5
:10027000900700209007002053EA020C00F06980EC
:100280002DE9F04B4FF00006002B1FBFB3FA83F5AA
:1002900003FA05F424FA05F65E4012BF1643B2FADB
:1002A00082F502FA05F4C5F120051EBF22FA05FC0D
:1002B00044EA0C04203556EA044C4FEA144418BFB3
:1002C000641C4FF000084FF00009904271EB030CE2
:1002D00039D3002919BFB1FA81F701FA07F6B0FA4C
:1002E00080F700FA07F6C7F120071EBF20FA07FCC7
:1002F00046EA0C062037B6FBF4FCA7EB0507103FD7
:1003000007F01F0BCBF120060CFA0BFB2CFA06F6BC
:1003100044BFB3460026202FA4BF5E464FF0000B1B
:100320005BEA060C08BF4FF0010B19EB0B09ABFBA6
:10033000027C48EB0608C01B06FB02CC0BFB03CC7F
:1003400071EB0C01C1E70B46024641464846BDE849
:10035000F08B13B54FF000004FF00001AFF30080B9
:10036000BDE81C40704700000FB41CB50C0007AA84
:10037000009001D02044401E074B7B446946019009
:10038000069800F04AF9002C03D06946002000F0DE
:1003900057F91CBC5DF814FBCD0200002DE9F041BB
:1003A0000646002410687529314616A510D0AFF313
:1003B0000080002802DA404213A507E031688A076E
:1003C00001D512A502E0490704D511A5012401E0D9
:1003D000AFF3008000210A2206F1240709E0B0FBF8
:1003E000F2FCB0FBF2F302FB1C00303078541846EC
:1003F000491C0028F3D123462A463046BDE8F04187
:1004000000F0ADB8000000002D0000002B0000003F
:10041000200000002DE9F0410F460546002028622B
:100420002846E968884770B3252805D0D5E9012119
:100430009047286A401CF2E7E9682846002688476A
:100440006C2804460AD0682C08D04C2C35D06A2C75
:1004500031D0742C31D07A2C2FD016E0E9680646C2
:1004600028468847B042044608D16C2E23D04FF46A
:1004700080662846E9688847044606E06C2E03D06B
:100480004FF4807601E01EE04026E4B1A4F1410083
:10049000192802D8203446F400663A4621462846F8
:1004A0002E60FFF7ABFE60B1012808D0FF1D27F0DA
:1004B00007070837B4E78026DBE70026D9E73F1DAA
:1004C000AEE72046B2E7286ABDE8F08110B5431CCC
:1004D00002E010F8011B71B18107FAD14FF001322F
:1004E00002C88C1A8C4314EAC211F9D0C01A0A0649
:1004F00003D0C01E10BDC01A10BD0A0401D0801E5A
:1005000010BD0902FCD0401E10BD4FF0000200B526
:10051000134694469646203922BFA0E80C50A0E826
:100520000C50B1F12001BFF4F7AF090728BFA0E8D4
:100530000C5048BF0CC05DF804EB890028BF40F8A0
:10054000042B08BF704748BF20F8022B11F0804FE2
:1005500018BF00F8012B70477047704770472DE9AE
:10056000F0470D4699469246044600F1240801687A
:10057000880604D5E06921F01001216000E0012027
:10058000A84201DD471B00E00027A1697A1902EBB0
:100590000900081AA0612078C00602D42046AFF3F3
:1005A0000080002608E0D4E901211AF806009047EF
:1005B000206A401C761C20624E45F4DB2078C00681
:1005C0000AD52046AFF3008006E0D4E901213020AF
:1005D0009047206A401C2062381EA7F10107F4DC16
:1005E00007E0D4E9012118F805009047206A401C73
:1005F0002062281EA5F10105F3DC2046AFF3008040
:100600002078000602D50220BDE8F0870120FBE734
:1006100001694A1C02610878704700B58FB0CDE9C6
:1006200001310021059105497944CDE903101146B6
:100630006846FFF7EFFE0FB000BD0000E5FFFFFFCB
:100640000A6802F8010B0A607047D1E900239A4258
:1006500002D2531C0B6010707047754600F02CF8E6
:10066000AE4605006946534620F00700854618B09F
:1006700020B5FFF7EFFDBDE820404FF000064FF03A
:1006800000074FF000084FF0000B21F00701AC46C7
:10069000ACE8C009ACE8C009ACE8C009ACE8C009E6
:1006A0008D46704710B50446AFF300802046BDE884
:1006B0001040FFF7BABD0000004870472C0500202D
:1006C00001491820ABBEFEE726000200704700007B
:1006D000464910B54A6822F440324A604A68436885
:1006E0001A434A6001684A6822F480724A600168CD
:1006F0004A68036942EA03224A6001684A6822F0B4
:1007000040724A6001684A6883681A434A60016817
:100710008A6822F400628A6001688A68C3681A43A2
:100720008A60816A6FF07062D14201688A6822F043
:1007300070628A6001688A680CD0836A1A438A6092
:1007400001688A6822F040528A6001688A68C36A38
:100750001A4301E022F040528A6001688A6822F060
:1007600002028A6001688A68037E42EA43028A6064
:1007700090F82010002901684A680FD042F4006206
:100780004A6001684A6822F460424A6001684A6827
:10079000174C436A04EB43331A4301E022F400622E
:1007A0004A600168CA6A22F47002CA620168CA6AB1
:1007B000838B104C04EB03531A43CA6201688A68A6
:1007C00022F400728A6001688A6890F8303042EA48
:1007D00043228A6001688A6822F480628A60016824
:1007E0008A68406942EA8020886010BD0023014089
:1007F00000E0FFFF0000F0FF70B500F023FB154D97
:100800000446687820B168780021697003F0D6F951
:10081000E868201A0A2802D3EC6000F029F8286959
:100820000D4E201A642807D32C6102F047FE4FF4C6
:100830000041304600F0F9FA6869201AB0F5FA7FF5
:1008400007D330466C61BDE870404FF4805100F032
:10085000ECBA70BD00000020000C0240FEE77047BB
:100860000068426A08880A80101A00B270470000C7
:1008700070B514491448FFF7F3FF144C114D608014
:10088000A91C1348FFF7ECFF6081291D1148FFF7F1
:10089000E7FF6082A91D1048FFF7E2FF6083B4F90B
:1008A0000220616811446160B4F90A20E1681144D2
:1008B000E160B4F91220616911446161E1690844A1
:1008C000E06170BD1E000020A4020020A0010020F5
:1008D000EC020020340300207C03002072B6FEE707
:1008E000B42800D9B4204FF4FA6110FB01F0B42110
:1008F000B0FBF1F000F5FA7080B2704710B5FFF769
:10090000EFFF4FF4FA71884203D340F6C4118842D6
:1009100000D908460249096888630249088110BD68
:100920009C0400200000002010B5FFF7D9FF4FF411
:10093000FA71884203D340F6C411884200D90846B0
:100940000249096848630249C88010BD9C04002020
:100950000000002078B50024009490F83C20012A83
:1009600019D0012280F83C200A6807230568092A6B
:1009700013D9EE680A3A02EB420293409E43EE60BE
:100980000B788A680A3B03EB43039A400368DD68EF
:100990002A43DA6010E0022078BD2E6902EB4202A1
:1009A00093409E432E610B788A6803EB43039A4081
:1009B00003681D692A431A614A681F23072A13D254
:1009C00005686E6B521E02EB820293409E436E637B
:1009D0000B790A885B1E92B203EB83039A4003688B
:1009E0005D6B2A435A6327E005680D2A12D22E6BED
:1009F000D21F02EB820293409E432E630B790A883A
:100A0000DB1F92B203EB83039A4003681D6B2A43FA
:100A10001A6311E0EE6A0D3A02EB820293409E43A4
:100A2000EE620B790A880D3B92B203EB83039A4086
:100A30000368DD6A2A43DA62164B0568144A9D4250
:100A400006D10D68122D03D1556845F48005556017
:100A500005689D4218D10B68102B01D0112B13D1C2
:100A6000536843F400035360096810290CD10A4904
:100A70000A4A0968B1FBF2F101EB8101490000E08B
:100A8000491E00910029FBD180F83C40002078BD30
:100A900000230140002001403400002040420F00AC
:100AA00070B504004FF0000503D0206C002610B193
:100AB00007E0012070BD204600F01CF8666484F851
:100AC0003C60206CC00610D4206C20F4885040F0AC
:100AD000020020642046FFF7FBFD6664206C20F0D6
:100AE000020040F00100206400E0012584F83C6031
:100AF000284670BD10B586B0044614216846FFF73D
:100B000004FD1149206888421BD110480021026869
:100B100042F480720260006800F4807005900B4817
:100B20001438026842F004020260006800F0040019
:100B3000059003200090CDE901016946044800F0CA
:100B400077F806B010BD0000002001404438024094
:100B5000000802402DE9F0410446876D00F072F96B
:100B6000064694F835000025022806D080206065EE
:100B700084F834500120BDE8F0812068016821F03C
:100B8000160101602068416921F080014161206CFB
:100B900008B9A06C20B12068016821F0080101604B
:100BA0002068016821F0010101600CE000F04AF9C1
:100BB000801B052807D920206065032084F83500B4
:100BC00084F83450D7E720680068C007EED194F865
:100BD0005C103F208840B860012084F8350084F81C
:100BE00034500020C7E790F83510022903D0802147
:100BF000416501207047052180F8351000680168C3
:100C000021F00101016000207047000070B504462A
:100C100000F018F90546601C02D00448007804442E
:100C200000F010F9401BA042FAD370BD280000204C
:100C30002DE9F84FDFF8BCA10022012503264FF073
:100C40000F090AF1040BAAF1040E00BF0B6805FAA4
:100C500002F42340A34270D10F7907F00307012F5C
:100C600001D0022F16D187684FEA420806FA08FC25
:100C700027EA0C07D1F80CC00CFA08FC4CEA070C68
:100C8000C0F808C04768A7430C79C4F30014944027
:100C90003C4344600C79E443A4070AD0C4684FEA9B
:100CA000420C06FA0CF7BC438F6807FA0CF727438F
:100CB000C7600C7904F00304022C12D1D40800EBB5
:100CC000840CDCF820405707FF0E09FA07F824EAE5
:100CD0000804D1F8108008FA07F848EA0408CCF8AC
:100CE000208004684FEA420C06FA0CF7BC430F79E7
:100CF00007F0030707FA0CF7274307604C6814F462
:100D0000403F70D03C4C276847F4804727602468F8
:100D100022F0030704F480440094384C07EB040CE1
:100D2000DCF8084897074FEA177809FA08F7BC4338
:100D3000334FB84202D1002724E054E0314FB8428B
:100D400001D101271EE0304FB84201D1022719E03E
:100D50002E4FB84201D1032714E02D4FB84201D1E4
:100D600004270FE02B4FB84201D105270AE02A4F94
:100D7000B84201D1062705E0284FB84201D1072724
:100D800000E0082707FA08F72743CCF80878DAF8D4
:100D900000405746D1F804C09C435FEACC2C00D5F4
:100DA0001C433C60DBF800405F46D1F804C09C4324
:100DB0005FEA8C2C00D51C433C60DEF8004077468F
:100DC000D1F804C09C435FEA8C3C00D51C433C60D6
:100DD000084F083F3C68D1F804C09C435FEACC3C14
:100DE00000D51C433C60521C102AFFF42FAFBDE815
:100DF000F88F0000083C01404438024000300140B8
:100E0000000002400004024000080240000C0240C2
:100E1000001002400014024000180240001C024072
:100E20000069084000D001207047426921EA0203AE
:100E30000A4043EA0241816170470AB1816170470B
:100E40000904FBE701488068704700002800002083
:100E500070B5040025D094F83D00002520B984F831
:100E60003C50204600F008FB242084F83D00206818
:100E7000016821F0010101602068016841F400412E
:100E800001602068016821F40041016000F05EFC0F
:100E90004D4A6168914201D84C4900E04C49884272
:100EA00001D2012070BD4B492368B0FBF1F15E68AF
:100EB00026F03F060E435E606368934206D94FF406
:100EC000967359434FF47A73B1FBF3F12368491CCD
:100ED0001E6A26F03F06314319626168914210D8BC
:100EE0004900401EB0FBF1F2521CC2F30B02042A6F
:100EF00001D2042022E0B0FBF1F0401CC0F30B0053
:100F00001CE0A268F2B301EBC10303EB0116431E20
:100F1000B3FBF6F35B1C43F480431B0549D092B34B
:100F200001EBC10202EB0111401EB0FBF1F0401CCD
:100F3000C0F30B0040F4804040F400402168CA69CF
:100F40004CF6FF739A431043C861D4E9071001437C
:100F50002068026822F0C00211430160D4E9030155
:100F600001432068826848F2FF339A43114381604D
:100F7000D4E9050108432168CA6822F0FF02104342
:100F8000C86001E00EE016E02068016841F0010150
:100F900001602564202084F83D00256384F83E50DC
:100FA000002070BD01EB4106431EB3FBF6F35B1C52
:100FB000B3E70120C2E701EB4101401EB0FBF1F0B5
:100FC000401CC0F30B00B7E7A086010080841E0020
:100FD00000093D0040420F002DE9FF4F81B08946D6
:100FE0000446FFF72FFF054694F83D004FF0000838
:100FF00020287DD11923012250492046009501F077
:101000008DFC002874D194F83C00012870D0012098
:1010100084F83C0020680168C90703D1016841F0E9
:10102000010101602068016821F400610160242051
:1010300084F83D00002626644148E0624FF0011B21
:1010400020272068016841F480710160009500222A
:1010500059462046049B01F061FC50B120680068AD
:10106000C00502D54FF400702064032005B0BDE830
:10107000F08F216809F0FE000861FFF7E3FE2168A8
:10108000054648694969C0F34000C1F380214FF02B
:10109000A00A0FE0FFF7D6FE411B0498814200D85A
:1010A00008B984F83DA0216848694969C0F3400047
:1010B000C1F3802194F83D20A02A02D008B900296C
:1010C000E8D084F83D7020684169C943890716D487
:1010D000016841F400710160206841698069192349
:1010E000012216492046009501F018FCB8B900E02D
:1010F00021E084F83D7084F83C600020B6E7016888
:1011000041F40071016021686FF480604861192327
:1011100001220A492046009501F000FC08B1012097
:10112000A4E7039808F1010880458AD384F83D704C
:1011300084F83C60F3E7022098E70000020010000A
:101140000000FFFF2DE9FF4F83B09A46DDE91187CC
:1011500093460446DDF84090FFF774FE054694F888
:101160003D00202870D119230122744920460095A2
:1011700001F0D4FB0028F5D194F83C00012863D09D
:10118000012084F83C0020680168C90703D1016888
:1011900041F0010101602068016821F400610160F3
:1011A000222084F83D00402084F83E00002626647A
:1011B000C4F82490A4F82A80608D20856048E062FD
:1011C000CDE9007553465A462046049901F0A8FA25
:1011D000002879D1208DD0B1012821D002282068A3
:1011E00024D0416980690090208D032866D80128A9
:1011F0002BD0544902283B464FF00002009557D0AF
:101200008846204601F08AFB00285DD13AE020683C
:10121000416981690091016841F4007101607DE0DC
:101220002068016821F480610160F0E7016821F421
:10123000806101602068016841F4006101602068FC
:1012400041698069009069E075E02A463946204688
:1012500001F00AFC88BB54E02068016841F4007189
:10126000016020680069616A0870606A401C606201
:10127000218D491E2185618D491E6185216809697D
:10128000017042E02068016821F4806101602068FB
:101290000069616A0870606A401C6062208D401EAF
:1012A0002085608D401E60853B46002241460095AA
:1012B000204601F033FB00B9CEE705E02A46394667
:1012C000204601F0D1FB18B1012007B0BDE8F08F36
:1012D00020680069616A0870606A401C6062208D45
:1012E000401E81B22185608D401E60852068426964
:1012F000D243520712D4032903D1016821F480613B
:10130000016020680069616A0870606A401C606260
:10131000208D401E2085608D401E6085208D002818
:101320007FF462AF202084F83D0084F83E6084F8AA
:101330003C600020C9E70220C7E70000020010005F
:101340000000FFFF040001002DE9FF4F83B09A4623
:10135000DDE9119793460446DDF84080FFF772FD02
:10136000054694F83D0020287FD1192301224049E9
:101370002046009501F0D2FA002876D194F83C007E
:10138000012872D0012084F83C0020680168C90758
:1013900003D1016841F0010101602068016821F476
:1013A00000610160212084F83D00402084F83E0067
:1013B00000262664C4F82480A4F82A90608D208535
:1013C0002C48E062CDE9007553465A462046049900
:1013D00001F024FA70B930E02A463946204601F07F
:1013E0007BFB58B1206C042804D12068016841F4CB
:1013F00000710160012007B0BDE8F08F606A2168CC
:1014000000780861606A401C6062218D491E89B2C3
:101410002185628D521E628522685369DB435B071A
:101420000BD469B100781061606A401C6062208D45
:10143000401E2085608D401E6085208D0028CBD108
:101440002A463946204601F03DFA0028CAD154F810
:101450003D0B016841F400710160202004F81E0971
:10146000E67766770020C6E7FFE70220C3E70000C3
:10147000020010000000FFFF10B586B004461421E2
:101480006846FFF742F814492068884221D1134882
:10149000016841F0020101600068694600F0020045
:1014A00005904FF4406000901220019001200290BE
:1014B00003200390042004900948FFF7B9FB074874
:1014C0001030016841F480010160006800F4800080
:1014D000059006B010BD00000058004030380240B2
:1014E000000402400248816802781144816070471C
:1014F000280000200B4810B5016841F4007101601C
:10150000016841F480610160016841F4807101600B
:10151000032000F06FF80F2000F006F800F024F828
:10152000002010BD003C024070B50D4D04464FF444
:101530007A712878B1FBF0F00A490968B1FBF0F044
:1015400000F00CFB48B9102C07D200222146501E97
:1015500000F030F800206C6070BD012070BD00000C
:1015600028000020340000200A4808B5016841F432
:1015700080410160006800F4804000900548001F31
:10158000016841F080510160006800F080500090D7
:1015900008BD000044380240002809DB00F01F02AB
:1015A000012191404009800000F1E020C0F80011C5
:1015B00070470000F0B40E4B1B680C46C3F30223C7
:1015C000C3F10705042D00D90425191D072901D2EF
:1015D000002300E0DB1E012606FA05F1491E21402A
:1015E00099409E40761E16403143F0BC02F084BE06
:1015F0000CED00E0064900F0070208684FF6FF0313
:10160000184040EA0220034A104308607047000077
:101610000CED00E00000FA052DE9F0470E4605004C
:1016200065D0DFF81481D8F80000F7B200F00700A9
:10163000B04207D288F80070D8F8000000F0070028
:10164000B04254D128683D4C810712D5400703D5DC
:10165000206840F4E05020602878000703D5206817
:1016600040F4604020602068A96820F0F000084342
:1016700020602878C0072DD03049686808390128D3
:1016800012D0022813D0032811D009688907002935
:101690002DDA216821F0030101432160FFF7D2FB1D
:1016A000814641F2883A0EE009688903EFE709684C
:1016B0008901ECE7FFF7C6FBA0EB0901514502D910
:1016C0000320BDE8F0872068696800F00C00B0EBEB
:1016D000810FEFD1D8F80010404601F00701B14268
:1016E00007D90770006800F00700B04201D0012060
:1016F000E7E72878400705D52068E96820F4E0503E
:10170000084320602878000706D52068296920F45E
:10171000604040EAC100206000F038F82168084AC3
:10172000C1F30311515CC8400649086006480068CF
:10173000FFF7FAFE0020C4E7003C024008380240F0
:10174000BA430008340000202C000020044805495A
:1017500000680968044AC1F38221515CC84070479F
:101760003400002008380240CA43000804480549F4
:1017700000680968044AC1F34231515CC8407047AF
:101780003400002008380240CA430008154810B54C
:10179000006810F00C02144813D01449042A0FD02A
:1017A000082A0ED10F4C241F2268236802F03F0242
:1017B0005B0207D52068C0F38810A0FB010106E09A
:1017C000084610BD2168C1F38811A1FB0001002368
:1017D000FEF752FD2168C1F30141491C4900B0FBED
:1017E000F1F010BD083802400024F400808580012B
:1017F0002DE9F84F04006ED02078DFF84C93C00735
:10180000A9F104054AD009F104000168C1F381017E
:10181000012908D00068C0F3810002280AD1D9F854
:101820000000400206D52868800337D5606800288C
:10183000E1D033E06068B0F5803F10D0B0F5A02F64
:10184000286810D020F480302860286820F4802098
:1018500028606068A8B1FFF7F5FA06460DE0286831
:1018600040F48030F4E740F480202860F7E700BFC0
:10187000FFF7E8FA801B642873D828688003F7D53F
:101880000CE0FFF7DFFA064605E000BFFFF7DAFAE3
:10189000801B6428F0D828688003F7D42078DFF80C
:1018A000AC8280074FF0000A3ED5A748001D0168B2
:1018B00011F00C0F08D00068C0F3810002280BD192
:1018C000D9F80000400207D42868800716D5E068E0
:1018D000012800D112E033E1E068B8B10120C8F876
:1018E0000000FFF7AFFA064605E000BFFFF7AAFACF
:1018F000801B0228C0D828688007F7D5286821698E
:1019000020F0F80040EAC10028600DE0C8F800A00F
:10191000FFF798FA064604E0FFF794FA801B0228C6
:101920001FD828688007F7D42078000722D5864F73
:1019300087486169703771B101210160FFF782FA50
:10194000064604E0FFF77EFA801B022809D83868B3
:101950008007F7D50EE0C0F800A0FFF773FA06463F
:1019600005E082E0FFF76EFA801B02287DD8386818
:101970008007F7D42078400768D5DFF8CCB100277E
:101980000BF13C0BDBF80000C0000BD4DBF80010BF
:1019900041F08051CBF80010DBF80000012700F087
:1019A000805000906B4E3068C00510D4306840F411
:1019B00080703060FFF746FA009005E0FFF742FACA
:1019C0000099401A022850D83068C005F6D55E4EFE
:1019D000A0686C3601280FD00528306810D020F0A0
:1019E00001003060306820F004003060A068B8B1B9
:1019F000FFF728FA00900FE0306840F00100F4E7AC
:101A000040F004003060F7E7FFF71CFA0099411A34
:101A100041F28830814266D830688007F4D50EE004
:101A2000FFF710FA009007E0FFF70CFA0099411A4F
:101A300041F28830814256D830688007F4D42FB103
:101A4000DBF8001021F08051CBF80010A069C8B37A
:101A50003D49091D0968C1F3810102294AD00228C4
:101A6000504607D0C8F8600000E03CE0FFF7EAF914
:101A700004463BE04746C8F86000FFF7E3F9064636
:101A800005E000BFFFF7DEF9801B02282BD828688D
:101A90008001F7D4D4E907010843A16A2E4A490816
:101AA00002EB0141626A41EA8211084394F82C106A
:101AB00040EA0161C9F8001001203866FFF7C2F959
:101AC000044606E03EE000BFFFF7BCF9001B022819
:101AD00009D828688001F7D534E000BFFFF7B2F9D4
:101AE000001B022802D90320BDE8F88F2868800176
:101AF000F4D427E00128F7D0D9F80000E26900F417
:101B0000800191421CD1226A00F03F01914217D11D
:101B100047F6C071626A0140B1EB821F10D1A26A20
:101B20004FF0FF3300F4403103EB5202B1EB024FB0
:101B300006D194F82C1000F07060B0EB016F01D06A
:101B40000120D1E70020CFE70438024000004742DF
:101B5000800E4742007000400000FFFF10B5401E9D
:101B6000B0F1807F01D3012010BD4FF0E02460610F
:101B70000F21601702F0C0FB0020A0610720206148
:101B8000002010BD10B590F83C20012A22D001227F
:101B900080F83C20CA688C6822F4407222434C686A
:101BA00022F4806222430C6822F4006222430C6912
:101BB00022F4805222434C6922F400522243C96924
:101BC000002322F480420A4301684A6480F83C30D2
:101BD000002010BD022010BD70B590F83C20012AF5
:101BE00032D0012480F83C40022280F83D20036876
:101BF0005A689D6822F070060A6832435A60134B97
:101C000002689A4214D0B2F1804F11D0104B9A4220
:101C10000ED0104B9A420BD00F4B9A4208D00F4B6C
:101C20009A4205D00E4B9A4202D00E4B9A4204D1F2
:101C3000496825F080031943916080F83D400021F8
:101C400080F83C10084670BD022070BD00000140C5
:101C50000004004000080040000C00400004014067
:101C6000004001400018004010B5040003D094F873
:101C70003D0010B107E0012010BD002084F83C00B9
:101C8000204600F01FF8022084F83D00211D206846
:101C900001F0EAFC012084F8460084F83E0084F854
:101CA0003F0084F8400084F8410084F8420084F842
:101CB000430084F8440084F8450084F83D00002087
:101CC00010BD000008B50C4A01680C48914207D1CC
:101CD000016841F400310160006800F4003009E05F
:101CE000074A914207D1016841F4802101600068F0
:101CF00000F48020009008BD0044014044380240B8
:101D0000004801402DE9F0410D46040003D094F84D
:101D10003D0018B108E00120BDE8F081002084F802
:101D20003C00204600F040F8022084F83D00206886
:101D3000816844F2070291438160211D206801F00F
:101D400093FC226890689169166A2B68AF69034317
:101D500040F20330814341EA0721A868EF69084354
:101D60004FF6FC418843E96840EA072001432869AF
:101D70002F6A000140EA0730084369686D6926F060
:101D8000AA0646EA0515294393602268906154F833
:101D9000460B0162012004F81F09E0752076E07609
:101DA0002077A0750020B7E7F0B587B0044614216E
:101DB0006846FEF7AAFB3D49256800223B4B1039D7
:101DC000032702243A48B5F1804F1FD0DFF8E4C062
:101DD000C026654531D11D6845F002051D601B68B0
:101DE00003F0020305930B6843F001030B600968DD
:101DF0000096CDE9014201F00101CDE904410392D1
:101E00004FEA0D01FEF714FF07B0F0BD1D6845F065
:101E100001051D601B6803F0010305930B6843F087
:101E200001030B600968009701F001010591CDE9FC
:101E300001420121CDE90321E2E71F48854217D184
:101E4000186840F004001860186800F0040005905D
:101E5000086840F00200086008680096CDE9014279
:101E600000F00200CDE90440694603921348C9E737
:101E700013488542C8D10D48001D036843F0020392
:101E80000360006800F002000590086840F004005C
:101E9000086008680096CDE9014200F00400CDE931
:101EA0000470694603920748ACE7000040380240DE
:101EB000000002400004004000080040000402400E
:101EC000000401400008024070B590F83E600446EE
:101ED00090F83F5090F8423090F84320022021B112
:101EE00004290ED0012E1BD114E0012E18D1012B94
:101EF00016D184F83E0084F84200012200212068B7
:101F000020E0012D0CD1012A0AD184F83F0084F889
:101F1000430014E0012D03D1012B01D1012A01D08E
:101F2000012070BD84F83E0084F83F0084F8420030
:101F300084F8430001220021206801F0FDFB01220A
:101F40000421206801F0F8FB2068016841F00101DC
:101F50000160002070BD000070B586B004461421F9
:101F60006846FEF7D2FA246832480022324902233A
:101F7000844212D1086840F0010008600868694690
:101F800000F0010005904FF470600090CDE901323F
:101F90000120CDE90320294812E029480325844285
:101FA00012D1086840F0100008600868694600F027
:101FB0001000059060200090CDE90132214821E019
:101FC000FEF736FE06B070BD1F4E2048B44209D160
:101FD0000C6844F002040C60096801F002010591EC
:101FE00081150BE01A4EB4420FD10C6844F0020484
:101FF0000C60096801F00201059171150091CDE9AD
:1020000001326946CDE90325DAE7124DAC42D9D158
:102010000C6844F002040C60096801F002010591AB
:10202000E9000091CDE901320921CDE9032169469A
:10203000C6E70000000001403038024000000240C6
:1020400000400140001002400044014000040240F2
:10205000004801400018004070B5044690F83C006C
:1020600000260D4601280FD0012084F83C006AB1FB
:10207000042A1DD0082A2FD00C2A3FD00126002088
:1020800084F83C00304670BD022070BD206801F02D
:1020900061FB2068816941F00801816120688169E4
:1020A00021F004018161206881692A69114311E0EE
:1020B000206801F07FFB2068816941F40061816143
:1020C0002068816921F480618161206881692A69C1
:1020D00041EA02218161D2E7206801F0A1FB20687A
:1020E000C16941F00801C1612068C16921F00401A2
:1020F000C1612068C1692A69114311E0206801F0BB
:10210000C3FB2068C16941F40061C1612068C169F5
:1021100021F48061C1612068C1692A6941EA022114
:10212000C161ACE710B5040003D094F83D0010B1D4
:1021300007E0012010BD002084F83C00204600F09C
:102140001FF8022084F83D00211D206801F08CFA60
:10215000012084F8460084F83E0084F83F0084F8AB
:10216000400084F8410084F8420084F8430084F879
:10217000440084F8450084F83D00002010BD0000B4
:1021800008B5134A01681348914207D1016841F02C
:1021900001010160006800F0010009E00E4A91426F
:1021A00008D1016841F480310160006800F480309A
:1021B000009008BD09488142FBD10648001F016814
:1021C00041F040010160006800F04000F0E70000CD
:1021D0000000014044380240004001400018004027
:1021E00010B50446022249B104290ED0082913D0A3
:1021F00094F84100012816D0012010BD94F83E004B
:102200000128F9D184F83E200FE094F83F0001281E
:10221000F2D184F83F2008E094F840000128EBD187
:1022200084F8402001E084F841200122206801F078
:1022300083FA16492068164A884201D0904203D199
:10224000436C43F4004343642068884213D0B0F1E8
:10225000804F10D00F4988420DD00F4988420AD0D4
:102260000E49884207D0904205D00D49884202D0DD
:102270000C49884204D1816801F00701062903D086
:10228000016841F001010160002010BD0000014023
:10229000000401400004004000080040000C004021
:1022A000004001400018004070477047F8B50168D1
:1022B00004460868CA684B6910F00F0F4FF000051C
:1022C00059D003F0010602F49077374365D0C10777
:1022D00005D0D10503D5616C41F00101616441076E
:1022E00005D5D90703D0616C41F002016164810713
:1022F00005D5D90703D0616C41F004016164010781
:1023000007D502F02001314303D0616C41F0080190
:102310006164616C00293AD0800604D5900602D52C
:10232000204601F007FB20684069616CC0F3801013
:10233000090700D460B3204601F0D5FA206840694F
:10234000400621D52068143050E8001F21F04001DC
:1023500040E80012002AF5D1E06BA8B1724901658E
:10236000E06BFEF740FC002811D0E06B016D01B07E
:10237000BDE8F040084783060FD593060DD52046EB
:10238000BDE8F84001F0D6BA2046FFF78EFFF8BD51
:102390002046FFF78AFF6564F8BD266B2023012ED7
:1023A0007ED1C6067CD5D6067AD5086848680090E6
:1023B00048694FF0020640064DD5E26B1068406850
:1023C0004FF480770004000C3AD0A18D814237D9B8
:1023D000E085D069B8422DD020680C3050E8001F4D
:1023E00021F4807140E80012002AF5D120681430F1
:1023F00050E8001F21F0010140E80012002AF5D149
:102400002068143050E8001F21F0400140E800121D
:10241000002AF5D184F84230256320680C3050E85A
:10242000001F21F0100140E80012002AF5D1E06BF6
:10243000FEF790FB6663A08DE18D401A81B206E045
:10244000A18D8142A8D1D069B842A5D1666320464A
:10245000FFF72AFFF8BDA08DE18D401A81B2E08D13
:102460000028F7D00029F5D020680C3050E8002F64
:1024700022F4907240E80027002FF5D12068143034
:1024800050E8002F22F0010240E80027002FF5D18C
:1024900084F84230256320680C3050E8002F00E0BB
:1024A00006E022F0100240E80023002BF3D1CDE734
:1024B00005062BD5150629D594F841002128C9D148
:1024C000A068B0F5805F01D12069B0B1206A411CDD
:1024D0002162216800784860E08C401E0004000CF6
:1024E000E084B7D12068C16821F08001C160206814
:1024F000C16841F04001C160F8BD206A0088C0F3A6
:1025000008004860206A801C2062E5E74006F3D599
:102510005006F1D5CA68204622F04002CA6084F80D
:10252000413000F0E3F8F8BDD938000870B5040078
:1025300004D094F84100002510B106E0012070BDE0
:1025400084F84050204600F023F8242084F841000D
:102550002068C16821F40051C160204601F04CFAA6
:102560002068016921F4904101612068416921F0EE
:102570002A0141612068C16841F40051C16065646D
:10258000202084F8410084F842006563002070BD7B
:1025900010B586B0044614216846FDF7B6FF17490A
:1025A0002068884228D116480021026842F400328F
:1025B0000260006800F4003005901148103802688D
:1025C00042F001020260006800F0010005900C205A
:1025D00000900220CDE90101032003900720049020
:1025E00069460848FEF724FB002211462620FEF724
:1025F000E1FF2620FEF7D0FF06B010BD00440040EA
:10260000403802400000024090F84230202B01D0B8
:102610000220704721B11AB10023036301F072BA9E
:102620000120704700680649884207D105480178B3
:102630004170014601220448FFF7E6BF70470000E1
:102640000044004000000020E40400202DE9F8438D
:10265000044690F84100984616460D46202802D0C0
:102660000220BDE8F88385B17EB10020606421209E
:1026700084F84100FEF7E6FBA6848146E684A06864
:102680002027B0F5805F02D003E00120E9E7206950
:1026900010B12E4600250EE000260CE080212046D9
:1026A00001F04BFAA8B9C6B116F8010B21684860D1
:1026B000E08C401EE084E08C4B464FF00002CDF8E9
:1026C00000800028EAD14FF04001204601F035FAA1
:1026D00040B184F841700320C3E735F8020BC0F322
:1026E0000800E3E784F841700020BAE77047FEE78E
:1026F00001684A69D24352050FD46FF480624A617F
:10270000002140F8301F202242738173026942F099
:10271000040202610173012070470020704700002D
:102720002DE9F84F0446006889460B9D01689846DC
:10273000174641F4806101602068016841F48071AE
:10274000016000954FF0011B0022594620460A9B6C
:1027500000F0E4F84FF4007A40B120680068C0054A
:1027600001D5C4F840A00320BDE8F88F216809F026
:10277000FE0008612B46284920460A9A00F016F907
:10278000F0BB20684169806900902A4620460A997A
:1027900000F0A2F940B1206C04283AD12068016809
:1027A00041F40071016034E0FEB2B8F1010F09D0CC
:1027B0002168380A08612A4620460A9900F08CF9F7
:1027C0000028E8D1206806612A4620460A9900F0D0
:1027D00083F90028DFD12068016841F4807101602D
:1027E00000950022594620460A9B00F097F80028E1
:1027F000B3D1216809F0FF0040F00100086100E05A
:1028000007E02B46044920460A9A00F0CFF800283A
:10281000AAD00120A8E70000020001002DE9F8433A
:10282000044600680D46DDE908970168984616469B
:1028300041F4807101604B4600224FF001112046A7
:10284000009700F06BF848B120680068C00502D519
:102850004FF4007020640320BDE8F883216805F080
:10286000FE0008613B464A461549204600F09EF8A6
:1028700088B920684169806900903A4649462046F7
:1028800000F02AF948B1206C042804D120680168BE
:1028900041F4007101600120DEE7F5B2B8F1010FEB
:1028A00009D02168300A08613A464946204600F0BE
:1028B00013F90028E7D1206805610020CCE700006B
:1028C0000200010070B516460D4604461EE0204683
:1028D000FFF70EFF08B1012070BD681C16D0FEF78F
:1028E000B1FA801BA84200D885B920684069C0436E
:1028F00040070BD5002044F8300F20216173A073EE
:10290000216941F0200121612073E4E720684069DA
:10291000C0434007DBD4002070BD00002DE9F04724
:10292000984617460D460446C1F30746DDF8209049
:102930002AE000BFB8F1FF3F26D0FEF783FAA0EBF4
:102940000901414502D8B8F1000F1DD12068012EC0
:1029500016D0806925EA00000004000C12D0002087
:10296000B84211D1002044F8300F20216173A073C8
:10297000216941F02001216120730120BDE8F08729
:102980004069E7E70120EBE72068012E0AD0806963
:1029900025EA00000004000C06D00020B842C9D08F
:1029A0000020EBE74069F3E70120F7E72DE9F04766
:1029B000984616460D4604464FF000094FF0200A8F
:1029C000C1F3074723E020684069C043400515D4A0
:1029D0002068016841F40071016021686FF4806033
:1029E0004861C4F8309084F83DA084F83E90216C92
:1029F00041F00401216484F83C9021E0701C06D071
:102A0000FEF720FAA0EB0800B04203D816B1012F60
:102A10001FD021E02068012F15D0806925EA000031
:102A20000004000C18D000BF44F8309F84F80DA0BB
:102A300084F80E90216941F02001216184F80C9006
:102A40000120BDE8F087406925EA00000004000C81
:102A5000EAD12068406901E02068806925EA000029
:102A60000004000CAFD1ECE72DE9F04100259046C1
:102A70000E460446202728E04069C043C0060CD417
:102A800054F8301B6FF01000486144F81059677714
:102A9000A577206A2062257714E0FEF7D3F9A0EB32
:102AA0000800B04200D886B920684069C04340069B
:102AB0000BD544F8305F6773A573206940F02000A0
:102AC000206125730120BDE8F08120684169C94378
:102AD0004906D1D40020F6E770B516460D460446E7
:102AE0001EE02046FFF704FE08B1012070BD681CFF
:102AF00016D0FEF7A7F9801BA84200D885B9206838
:102B00004069C04300060BD5002044F8300F202157
:102B10006173A073216941F0200121612073E4E712
:102B200020684069C0430006DBD4002070BD00006F
:102B30007FB5002414480094019402941149039431
:102B4000C0E9001484600461047680F820400F49D5
:102B5000C0E90A140125C561C46080F830404561B0
:102B6000FDF79EFF08B1FDF7B9FE0A20CDE900058B
:102B7000694602940448FDF7EDFE002801D0FDF7F8
:102B8000ADFE7FBD00200140C00100200100000F0C
:102B9000F0B587B014216846FDF7B7FC3248002431
:102BA000016841F010010160016801F01001059118
:102BB000016841F080010160016801F08001059128
:102BC000016841F004010160016801F00401059110
:102BD000016841F001010160016801F00101059106
:102BE000016841F002010160016801F002010591F4
:102BF000016841F00801016000681C4E00F0080007
:102C00000590012230213046FEF717F9184F0022B7
:102C10004FF2FF113846FEF710F90F2001258DE81D
:102C2000310069461348FEF703F830200090CDE9E3
:102C30000154694630460394FDF7FAFF2802CDE9B6
:102C40000005CDE9025469463846FDF7F1FF4FF221
:102C5000FF000090CDE90154694638460394FDF722
:102C6000E7FF07B0F0BD0000303802400008024026
:102C7000000C0240001002400D4810B50B490160E5
:102C80000C49416000214FF480428160C0E9031289
:102C900041618161C1610162FEF7DAF8002803D069
:102CA000BDE81040FDF71ABE10BD000000580040FE
:102CB00008020020A086010010B588B01C216846DB
:102CC000FDF723FC16481549002401600721C0E9DF
:102CD000011444F61F61C0E903148461FEF7C4FFC8
:102CE00008B1FDF7FBFD0E48FFF71CFA08B1FDF730
:102CF000F5FD602000904FF4FA70CDE90104002248
:102D0000694607480494FFF7A7F908B1FDF7E6FD07
:102D10000348FFF721F908B010BD0000004401404E
:102D20000C04002010B588B01C216846FDF7EDFBAF
:102D30001648154900240160A721C0E9011444F692
:102D40001F61C0E903148461FEF78EFF08B1FDF72F
:102D5000C5FD0E48FFF7E6F908B1FDF7BFFD60209D
:102D6000009040F2DC50CDE901040022694607489A
:102D70000494FFF771F908B1FDF7B0FD0348FFF7C0
:102D8000EBF808B010BD00000048014054040020DA
:102D900010B588B01C216846FDF7B7FB17481649E7
:102DA000002401600721C0E9011444F61F61C0E955
:102DB00003148461FFF7B6F908B1FDF78FFD6020B9
:102DC00000904FF4FA70CDE90104002269460B48E7
:102DD0000494FFF741F908B1FDF780FD042269462C
:102DE0000648FFF739F908B1FDF778FD0348FFF70A
:102DF000B3F808B010BD0000001800409C0400208B
:102E000010B592B000240F941C2168461094FDF771
:102E10007CFB202107A8FDF778FB2C482A49C0E954
:102E2000001442F2CF01C0E90241046144618461AF
:102E3000FFF778F908B1FDF751FD0F940FA923486A
:102E40001094FEF7C9FE08B1FDF748FD6020CDE9FA
:102E500000040294039404940594002269461B48DC
:102E60000694FFF7F9F808B1FDF738FD042269462A
:102E70001648FFF7F1F808B1FDF730FD0822694662
:102E80001248FFF7E9F808B1FDF728FD0C22694662
:102E90000E48FFF7E1F808B1FDF720FD079408940C
:102EA00009944FF400500A94CDE90B4007A9074854
:102EB0000E94FEF767FE08B1FDF710FD0348FFF71B
:102EC0004BF812B010BD0000000001405C02002071
:102ED00010B58CB024216846FDF717FB0024154877
:102EE00009944FF080410A94C0E900144FF6FF7135
:102EF000C0E90241046184610120CDE90004CDE90B
:102F0000020406210491CDE90540CDE90741694657
:102F10000848FEF7F7FE08B1FDF7E0FC099409A99F
:102F200004480A94FEF758FE002801D0FDF7D6FCAD
:102F30000CB010BDA402002010B58CB0242168464E
:102F4000FDF7E3FA00241648099414490A94C0E9ED
:102F500000144FF6FF71C0E9024104618461012051
:102F6000CDE90004CDE9020406210491CDE9054034
:102F7000CDE9074169460A48FEF7C4FE08B1FDF7EE
:102F8000ADFC099409A906480A94FEF725FE00281D
:102F900001D0FDF7A3FC0CB010BD00000004004000
:102FA000EC02002010B58CB024216846FDF7ADFA84
:102FB00000241648099414490A94C0E900144FF6F5
:102FC000FF71C0E90241046184610120CDE9000480
:102FD000CDE9020406210491CDE90540CDE9074180
:102FE00069460A48FEF78EFE08B1FDF777FC0994A2
:102FF00009A906480A94FEF7EFFD002801D0FDF765
:103000006DFC0CB010BD000000080040340300202F
:1030100010B58CB024216846FDF777FA00241648D5
:10302000099414490A94C0E900144FF6FF71C0E9ED
:1030300002410461446184610120CDE90004CDE9CD
:10304000020406210491CDE90540CDE90741694616
:103050000948FEF757FE08B1FDF740FC099409A99D
:1030600005480A94FEF7B8FD002801D0FDF736FCAC
:103070000CB010BD000401407C03002010B588B0E6
:103080001C216846FDF741FA1748164900240160E3
:103090000721C0E9011444F61F61C0E903148461EB
:1030A000FFF740F808B1FDF719FC6020009040F2EE
:1030B000DC50CDE90104002269460B480494FEF778
:1030C000CBFF08B1FDF70AFC042269460648FEF76B
:1030D000C3FF08B1FDF702FC0348FEF73DFF08B04F
:1030E00010BD000000400140C40300200C4810B592
:1030F0000A4901604FF4E1314160002181600C22F6
:10310000C160C0E904128161C161FFF70FFA0028B4
:1031100003D0BDE81040FDF7E1BB10BD0044004006
:10312000E4040020FEE7000008B1012200E00022D4
:103130004FF480710148FDF780BE0000000C024092
:103140002DE9F0410C464E498C4201DA0C4609E06B
:1031500042F2CF018C4201DD0C4601E0002C01DB84
:10316000214600E06142474B474E484F8DB201284F
:1031700011D0022831D003284ED004282BD1002CA6
:1031800068DD4FF000024FF0400198461846FDF709
:1031900054FE01226BE0002C09DD4FF000024FF0DD
:1031A000010198461846FDF748FE01220CE002DABC
:1031B0004FF0010201E04FF000024FF0010198468C
:1031C0001846FDF73AFE002202214046FDF735FE83
:1031D000306845633C80BDE8F081002C11DD4FF084
:1031E000010200BF4FF0040198461846FDF725FE86
:1031F000002208214046FDF720FE306885633C81AF
:10320000E9E74FF00002EDDA4FF004019846184666
:10321000FDF713FE0122ECE7002C10DD4FF0010258
:103220004FF0100198461846FDF707FE00222021B6
:103230004046FDF702FE3068C5633C82CBE74FF0A5
:103240000002EDDA4FF0100198461846FDF7F5FD43
:103250000122ECE702DA4FF0010201E04FF0000238
:103260004FF0400198461846FDF7E7FD0022802107
:103270004046FDF7E2FD306805643C83ABE70000A3
:1032800031DFFFFF000C02405C020020A0010020A3
:1032900010B500210120FFF753FF00210220FFF7A6
:1032A0004FFF00210320FFF74BFF0021BDE8104036
:1032B0000420FFF745BFFEE710B51420FDF7A6FC7C
:1032C0006423032280211248FDF786FE012458B1B1
:1032D000104800F013FF1048012251034471BDE86B
:1032E00010400E48FDF7A9BD0021084600F084F803
:1032F0000421012000F080F8322000F01DF8142095
:10330000FDF784FCBDE8104005A000F0F7BE00000A
:1033100008020020D443000800000020000C0240F6
:103320000D0A5043413936383520696E6974204F93
:103330004B2E0D0A000000007FB517490003B1FBBA
:10334000F0F0401EC5B200228DF80C20642301214C
:1033500003A88DE80B000B4680211048FDF7F2FE14
:103360009DF80C4004F07F0040F01001002000F0B8
:1033700043F82946FE2000F03FF82146002000F0E7
:103380003BF80520FDF742FC04B044F0A001BDE885
:103390007040002000F030B840787D010802002025
:1033A0001FB54FF4FA72914203D340F68C2291423A
:1033B00000D91146090344F62062B1FBF2F189B24B
:1033C0000F2816D800228DF80C208DF80D208DF8CE
:1033D0000E10090A8DF80F106423042203A98DE84A
:1033E0000E00062101EB8002012380210148FDF738
:1033F000ABFF1FBD0802002003B583B06423012288
:1034000004A98DE80E001346024680210248FDF70C
:103410009BFF05B000BD00000802002070470000BF
:1034200010B5002210210348FDF707FD02490020D6
:10343000887010BD000802400000002010B5002276
:1034400020210348FDF7F9FC02490020C87010BD97
:10345000000802400000002030B587B01421684603
:10346000FDF753F811480024016841F004010160A0
:1034700000680F4D00F004000590224610212846F8
:10348000FDF7DBFC002220212846FDF7D6FC30208A
:1034900000900120CDE90104694628460394FDF718
:1034A000C7FB04488470C47007B030BD3038024098
:1034B00000080240000000207047000070B50121A4
:1034C0000E48FDF7ADFC0E4C0125A0B12079002877
:1034D00013D000BFFFF7DCFEFFF7A2FFFFF7AEFF40
:1034E0000020FFF721FE6571BDE870400122510305
:1034F0000448FDF7A2BC2571ECE770BD0010024046
:1035000000000020000C024010B57821012000F0DE
:1035100031F8C820FDF77AFB7821022000F02AF864
:10352000C820FDF773FBB421032000F023F8C82066
:10353000FDF76CFBBDE8104001A000F0DFBD00000E
:103540000D0A536572766F20696E697420706F730F
:10355000653A20626F74746F6D3D3132302C206D8E
:103560006964646C653D39302C20746F703D31386E
:10357000300D0A0070B5B42900D9B42140F6980284
:1035800011FB02F1B422B1FBF2F101F5FA718CB238
:103590004FF4FA718C4203D340F68C218C4200D94F
:1035A0000C460C4D012809D002280DD0032804D167
:1035B00021460220FFF7F4FEAC8070BD21460020BA
:1035C000FFF7EEFE2C8070BD21460120FFF7E8FEDC
:1035D0006C8070BD18000020FDF784BF10B592B05C
:1035E00030216846FCF791FF14210CA8FCF78DFFF1
:1035F00017480024016841F080510160006800F024
:10360000805011901348016841F4804101600068C6
:10361000069400F480401190022000900120039055
:10362000102004906846FEF7E3F808B172B6FEE792
:103630000F20CDE90C040E940F9400210CA81094D7
:10364000FDF7EAFF002801D072B6FEE712B010BD08
:1036500040380240007000400248016841F47001A7
:103660000160704788ED00E0F0B50268274B284DF7
:10367000284E294F294C4FF0804C984209D0604584
:1036800007D0A84205D0B04203D0B84201D0A04232
:1036900004D122F0700E4A6842EA0E0298421BD012
:1036A000604519D0A84217D0B04215D0B84213D007
:1036B000A04211D01A4DA8420ED01A4DA8420BD0EC
:1036C000194DA84208D0194DA84205D0184DA8425E
:1036D00002D0184DA84203D122F44075CA682A438B
:1036E0004D6922F080022A438D68C5620D688562AB
:1036F000984201D0A04201D109690163016841F0FB
:1037000004010160012141610260F0BD000001403F
:103710000004004000080040000C0040000401408C
:1037200000400140004401400048014000180040B2
:10373000001C00400020004010B501F01F030121D3
:10374000046A99408C430462016A9A401143016201
:1037500010BD0000F0B5036A026A22F001020262A5
:1037600042688469124E24F073050C682C4323F0E0
:1037700002058B682B430D4DA84201D0B04205D104
:1037800023F00807CB683B4323F00403A84201D091
:10379000B04205D14D6922F4407215438A692A432B
:1037A00042608461496841630362F0BD00000140EA
:1037B00000040140F0B5026A036A23F010030362BB
:1037C000436884690D6824F4E64444EA05248D685E
:1037D00022F0200242EA05120F4D104EA84201D0FD
:1037E000B04206D1CF6822F0800242EA071222F0EE
:1037F0004002A84201D0B04207D14D6923F4406392
:1038000043EA85038D6943EA85034360846149681F
:1038100081630262F0BD000000000140000401402D
:10382000F0B5026A036A23F4807303624368C469D3
:1038300022F4007224F073050C68124E2C438D683C
:1038400042EA05220E4DA84201D0B04206D1CF680F
:1038500022F4006242EA072222F48062A84201D0E8
:10386000B04207D14D6923F4405343EA05138D69F3
:1038700043EA05134360C4614968C1630262F0BD55
:10388000000001400004014030B5046A026A22F4DD
:10389000805202624268C3690D6823F4E64343EA3A
:1038A00005238D6824F4005444EA0534084DA842E9
:1038B00002D0084DA84204D14D6922F4804242EA68
:1038C00085124260C36149680164046230BD000032
:1038D000000001400004014010B5806B0021C1854B
:1038E000FEF7E3FC10BD01680C3151E8002F22F413
:1038F000907241E80023002BF5D10168143151E8A2
:10390000002F22F0010241E80023002BF5D1016BCA
:10391000012909D101680C3151E8002F22F0100271
:1039200041E80023002BF5D1202180F8421000212E
:103930000163704708B590F84210222901D0022097
:1039400008BD82684FF480539A4201D1016921B1C8
:10395000816A9A421BD04AB10AE00268816A5268C1
:10396000C2F308020A80816A891C08E0026972B108
:103970000268526802F07F020A70816A491C816203
:10398000C18D491E0904090CC18503D01BE00268E2
:103990005268F1E70168CA6822F02002CA60016833
:1039A000CA6822F48072CA6001684A6922F0010282
:1039B0004A61202180F8421000214163026B012AF4
:1039C00003D0FEF72FFE002008BD016301680C3113
:1039D00051E8002F22F0100241E80023002BF5D11E
:1039E00001680A68D20602D50A6849680091818D8B
:1039F000FEF75AFCE7E7000070B50446006801696D
:103A0000E26821F44051114301612169A068E26933
:103A100008436169114308432168CA6849F20C638D
:103A20009A430243CA6020684169A26921F4407147
:103A30001143416131492068884202D030498842AF
:103A400002D1FDF793FE01E0FDF780FEE26900235D
:103A5000192164253226B2F5004F626828D0A0FBF8
:103A60000101930F9200FCF707FC0146B0FBF5F053
:103A70006FF01802504301EB800006EB0010B0FB22
:103A8000F5F000F0F002B1FBF5F002EB0012B1FB33
:103A9000F5F06FF01803584301EB800006EB0010BF
:103AA000B0FBF5F000F00F0021681044886070BD95
:103AB000A0FB010192185B41FCF7DEFB0146B0FB65
:103AC000F5F00201B1FBF5F06FF01803584301EB7C
:103AD000800006EBC000B0FBF5F000F0F80002EB50
:103AE0004002B1FBF5F0584301EB800006EBC0004B
:103AF000B0FBF5F000F00700D6E700000010014031
:103B00000014014081628285C28500214164222126
:103B100080F84210016921B10168CA6842F48072DC
:103B2000CA6001684A6942F001024A610068C168DE
:103B300041F02001C160002070472DE9F84398460C
:103B400017460D460446089E24E0701C22D0FDF75F
:103B500079F9A0EB0800B0421AD8CEB12068C1684C
:103B6000490717D5802D15D0402D13D00168C943C2
:103B700009070FD401680025406800902046FFF730
:103B8000B2FE0820606484F840500120BDE8F8834C
:103B90000320FBE72068006835EA000004D000201D
:103BA000B842D2D00020F1E70120F9E70148FEF742
:103BB0007DBB0000E4040020FEE7000070B5AA4CC5
:103BC0004FF496755A287CD02DDC44287AD01FDC1F
:103BD000A54932280A7945D00FDC0A2873D00D2870
:103BE00071D030283AD031286DD1002A6BD1012014
:103BF000FFF79AFA40F2DC543AE09C4C65423728D1
:103C000044D0382870D041287ED043285BD1C1E011
:103C10004C380C2857D2DFE800F087DCDCDCE9ED1B
:103C20009BC7DCF1CCC2A0F16101012690481A29A2
:103C300049D2DFE801F0A5CEAFAACECE0F0DCECE91
:103C4000EE79E6E5CEC3CF8DB9CEF3BEB4E8CEA112
:103C5000884804E1BDE8704000F004BABDE8704057
:103C6000FFF716BB002A2ED10120FFF75DFA824C28
:103C700001202146FFF764FA21460220FFF760FA8F
:103C800021460320FFF75CFA214628E0002A1AD1DA
:103C90000120FFF749FA21460120FFF751FA21469A
:103CA0000220FFF74DFA29460320FFF749FA29467B
:103CB0000420FFF745FA0020FCF7A8FF2146012069
:103CC00002E059E061E084E0FFF73AFA2146022081
:103CD000FFF736FA29460320FFF732FA2946BDE8F6
:103CE00070400420FFF72CBA002A72D10120FFF7A0
:103CF0001BFA29460120FFF723FA29460220FFF785
:103D00001FFA2146032000E03AE0FFF719FA2146A6
:103D10000420FFF715FA0020FCF778FF2946012060
:103D2000FFF70EFA2946A8E7B4210120FFF722FC8D
:103D30002846FCF76BFF3C210220FFF71BFC2846BE
:103D4000FCF764FFB4210320FFF714FC4BA086E0CE
:103D500000210120FFF70EFC2846FCF757FF3C210D
:103D60000220FFF707FC2846FCF750FFB421032090
:103D7000FFF700FC4CA072E0FFF7C6FB56A06EE018
:103D80002D20FCF7D1FD5BA069E08720FCF7CCFD7E
:103D900060A064E05A20FCF7C7FD66A05FE06E20DB
:103DA000FCF7ACFD6BA05AE03720FCF7A7FD71A033
:103DB00055E05020FCF7A2FD76A050E0A17819B1A3
:103DC000BDE87040FFF72CBB01221021FDF735F84C
:103DD000A67070BDE17819B1BDE87040FFF72EBB49
:103DE00001222021FDF729F8E67070BDFFF718FBCE
:103DF00071A034E0FFF722FB73A030E00EE002E098
:103E000027E021E005E0FFF70BFBFFF717FB72A0AF
:103E100025E02671FFF752FB76A020E001217A48C9
:103E2000FCF7FEFF012801D078A018E000202071E7
:103E3000607102464FF400517A48FCF7FEFF012002
:103E4000FFF772F978A00AE00120FFF76DF97BA077
:103E500005E00020FFF768F9FFF71AFA7CA0BDE83B
:103E6000704000F04BB900000000002054F2FFFF4A
:103E7000000802401844000824FAFFFF0D0A434DD1
:103E800044204C204F4B3A20626F74746F6D3D3963
:103E9000302C206D6964646C653D3132302C2074A7
:103EA0006F703D39300D0A000D0A434D44205220F9
:103EB0004F4B3A20626F74746F6D3D35302C206D1E
:103EC0006964646C653D3131302C20746F703D3114
:103ED00037300D0A000000000D0A434D44205A20DF
:103EE0004F4B3A20736572766F2072657365740D5F
:103EF0000A0000000D0A434D442061204F4B3A2038
:103F000067696D62616C20796177206C6566740DFC
:103F10000A0000000D0A434D442064204F4B3A2014
:103F200067696D62616C2079617720726967687476
:103F30000D0A00000D0A434D442063204F4B3A20E8
:103F400067696D62616C207961772063656E746565
:103F5000720D0A000D0A434D442077204F4B3A2042
:103F600067696D62616C2070697463682075700D9B
:103F70000A0000000D0A434D442073204F4B3A20A5
:103F800067696D62616C20706974636820646F7723
:103F90006E0D0A000D0A434D442076204F4B3A2007
:103FA00067696D62616C207069746368206465661E
:103FB00061756C740D0A00000D0A50554D5031208A
:103FC0004F46460D0A0000000D0A50554D50322054
:103FD0004F46460D0A0000000D0A50554D50312045
:103FE0004F46462C2050554D5032204F46460D0A24
:103FF000000000000D0A4553544F50204C415443DB
:104000004845440D0A000000001002400D0A4553C7
:10401000544F502050494E205354494C4C204C4F43
:10402000570D0A00000C02400D0A4553544F502012
:10403000434C45415245440D0A0000000D0A4D4FC6
:10404000544F5220454E41424C450D0A000000009D
:104050000D0A4D4F544F522044495341424C450D97
:104060000A00000030B5214995B001F118000DF1AA
:10407000400C42880D89CC8883888CE83C000588F8
:104080001B480DF1300CB0F91820B0F91A30C46992
:104090008CE83C000DF1200CC268B0F91240B0F978
:1040A000103045698CE83C00B0F902200DF1100C8D
:1040B000B0F90A50B0F9084043688CE83C00B0F908
:1040C0000000CA788B784C7903900094CDE90132D6
:1040D0000B79084A4FF4B4710748FCF745F915B05D
:1040E0000548BDE8304000F009B80000000000209D
:1040F000A0010020284700083800002010B5044621
:10410000FCF7E4F9214682B2BDE81040642301487F
:10411000FEF79CBAE404002070B5314D0022012165
:104120002846FCF78AFE002202212846FCF785FE7D
:10413000002204212846FCF780FE002208212846A0
:10414000FCF77BFE002210212846FCF776FE0022B9
:1041500020212846FCF771FE002240212846FCF76A
:104160006CFE002280212846FCF767FE1D4C0022D1
:1041700010212046FCF761FE002220212046FCF79A
:104180005CFE1949002422468C70CC70A914284684
:10419000FCF753FE00224FF400512846FCF74DFE79
:1041A00000224FF480412846FCF747FE00224FF4DE
:1041B00000412846FCF741FE0022A9152846FCF7DD
:1041C0003CFE0A4801684C6301688C630168CC635B
:1041D00000680464064801684C630068846370BD2D
:1041E000000C024000080240000000205C02002099
:1041F0009C04002010B500212B48FDF7F1FF04219D
:104200002948FDF7EDFF08212748FDF7E9FF0C21BC
:104210002548FDF7E5FF00212448FDF7E1FF0421D3
:104220002248FDF7DDFF3C212148FDF74DFE3C21F2
:104230002048FDF749FE3C211F48FDF745FE3C2183
:104240001E48FDF741FE1A490020096848621949D5
:10425000096848621849096848621849096848624B
:104260001749088048808880C880FFF725F8FFF745
:104270004BF95A20FCF758FBC820FCF7C7FC50202C
:10428000FCF73CFBC820FCF7C1FC0EA0FFF736FF93
:104290000B4901221E391748FEF7B6F9BDE8104058
:1042A0000120FEF741BF00005C0200209C040020BA
:1042B000A4020020EC020020340300207C03002034
:1042C0001E0000200D0A47696D62616C20696E69ED
:1042D0007420706F73653A207961773D63656E7401
:1042E00065722C2070697463683D64656661756CE5
:1042F000740D0A00E40400200907090E002804DBFD
:1043000000F1E02080F80014704700F00F0000F189
:10431000E02080F8141D7047FDF7ECF8FFF75EF918
:10432000FEF736FCFEF704FCFEF76AFDFEF7D0FD53
:10433000FEF702FEFEF736FEFEF76AFEFEF79EFE71
:10434000FEF7BAFCFEF7EEFCFEF7D0FEFEF794FC9B
:10435000FEF71EFDFFF780F8FFF7DEFEFFF74AFFCE
:1043600020211048FCF7D1F80F4D012211032846F7
:10437000FCF763FD012296033C2431462846FCF7F6
:104380005CFD2046FCF742FC002231462846FCF743
:1043900054FD0648FFF7B2FEFFF764FEFCF72CFA67
:1043A000FCE70000A0010020000C024018440008B7
:1043B0004FF04070E1EE100A70470000000000006E
:1043C00000000102030406070809000000000102C2
:1043D000030400000D0A4552524F523A2050434107
:1043E00039363835206E6F7420666F756E64206FB5
:1043F0006E20493243322E20436865636B20504261
:1044000031302F504231312F5643432F474E442FE6
:104410004F452E0D0A0000000D0A3D3D3D2053542E
:104420004D33324634303720536D6172742041670A
:10443000726963756C7475726520526F626F742057
:10444000436D64203D3D3D0D0A68203A2068656C4F
:10445000700D0A67203A2073656E6420737461746E
:1044600075730D0A30203A2073746F7020616C6C84
:10447000206D6F746F720D0A31203A20666F72776B
:104480006172640D0A32203A206261636B77617257
:10449000640D0A37203A207475726E206C6566745C
:1044A0000D0A38203A207475726E2072696768743C
:1044B0000D0A0D0A4C203A2073707261792F776FC4
:1044C000726B696E6720736572766F2061637469C1
:1044D0006F6E206C6566740D0A52203A20737072FC
:1044E00061792F776F726B696E6720736572766F73
:1044F00020616374696F6E2072696768740D0A5A6F
:10450000203A2073707261792F776F726B696E67D2
:1045100020736572766F20726573657420746F20E6
:10452000696E697420706F73650D0A0D0A612F4101
:10453000203A2063616D6572612067696D62616C0C
:10454000206C6F6F6B206C656674202028504231A0
:10455000342054494D31325F434831290D0A642FCC
:1045600044203A2063616D6572612067696D626104
:104570006C206C6F6F6B20726967687420285042E2
:1045800031342054494D31325F434831290D0A639B
:104590002F43203A2063616D6572612067696D6207
:1045A000616C2063656E7465722020202020285085
:1045B0004231342054494D31325F434831290D0A8C
:1045C000772F57203A2063616D6572612067696DAE
:1045D00062616C20706974636820757020202028E7
:1045E000504231352054494D31325F434832290D14
:1045F0000A732F53203A2063616D657261206769E9
:104600006D62616C20706974636820646F776E20DE
:1046100028504231352054494D31325F43483229C8
:104620000D0A762F56203A2063616D65726120670E
:10463000696D62616C20706974636820646566618D
:10464000756C740D0A0D0A70203A2070756D70310A
:1046500020746F67676C650D0A71203A2070756D64
:10466000703220746F67676C650D0A50203A2070B5
:10467000756D7031206F66660D0A51203A20707595
:104680006D7032206F66660D0A78203A20626F7472
:10469000682070756D7073206F66660D0A6B203A26
:1046A00020656D657267656E63792073746F702025
:1046B0006C617463680D0A752F55203A20636C6530
:1046C0006172206573746F70206C617463680D0A89
:1046D0006D203A206D6F746F7220656E61626C653B
:1046E0000D0A6E203A206D6F746F722064697361D9
:1046F000626C650D0A3D3D3D3D3D3D3D3D3D3D3DD1
:104700003D3D3D3D3D3D3D3D3D3D3D3D3D3D3D3DD9
:104710003D3D3D3D3D3D3D3D3D3D3D3D3D3D3D3DC9
:104720003D3D0D0A000000000D0A4553544F503D19
:104730002575204641554C543D25752050554D500A
:10474000313D25752050554D50323D25750D0A4D92
:10475000312070776D3D2564206431303D25642023
:10476000746F74616C3D256C640D0A4D3220707756
:104770006D3D2564206431303D256420746F746183
:104780006C3D256C640D0A4D332070776D3D2564BA
:10479000206431303D256420746F74616C3D256C5C
:1047A000640D0A4D342070776D3D256420643130EE
:1047B0003D256420746F74616C3D256C640D0A5353
:1047C0004552564F5F424F54544F4D5F55533D2510
:1047D0007520534552564F5F4D4944444C455F55F3
:1047E000533D257520534552564F5F544F505F55EA
:1047F000533D25750D0A47494D42414C5F5941577C
:104800005F55533D25752047494D42414C5F504906
:104810005443485F55533D25750D0A003C48000838
:104820000000002038000000C4010008744800089F
:1048300038000020580B0000E001000800000000D4
:104840000000DC05DC0500000000000000000000A6
:1048500000000000F401F401F40100000000000079
:104860000000000001000000100000000000000037
:044870000024F4002C
:040000050800018965
:00000001FF
